:100000000C944E010C947F010C947F010C947F01A1
:100010000C947F010C947F010C947F010C947F0160
:100020000C947F010C947F010C947F010C947F0150
:100030000C947F010C947F010C947F010C947F0140
:100040000C947F010C947F010C947F010C947F0130
:100050000C94EE0E0C947F010C947F010C94440ED2
:100060000C947F010C94B80E0C948E0E0C947F01AE
:100070000C947F010C947F010C947F010C947F0100
:100080000C947F010C947F010C947F010C947F01F0
:100090000C947F010C947F010C947F010C947F01E0
:1000A0000C947F010C947F010C947F010C947F01D0
:1000B0000C947F010C947F010C947F010C947F01C0
:1000C0000C947F010C947F010C947F010C947F01B0
:1000D0000C947F010C947F010C947F010C947F01A0
:1000E0000C947F010C94DD010C9423100C947E047D
:1000F0000C94D7010C946E020C94D4010C94EF0173
:100100000C94EB010C94E7010C94E1010C940302B4
:100110000C94D0010C9490020C9415030C94FD01E6
:100120000C9432020C9482020C94F9010C94C802D3
:100130000C945F020C94B6010C94B1010C94CC01A8
:100140000C94F5010C9407020C94C8010000803F48
:10015000CDCCCC3D6F12833A95BFD6337D1D902612
:10016000B3CE010C00002100240027002A002D003E
:100170003000330001010000040107010A01000002
:100180002200250028002B002E003100340002013F
:100190000000050108010B01050505050705080814
:1001A0000808020202020A0A080804040404010101
:1001B0000101010101010303030303030303040716
:1001C00007070C0C0C0C0C0C0C0C020202020606AD
:1001D0000606060606060B0B0B0B0B0B0B0B0102A0
:1001E0001020200808102040102040800201020149
:1001F0000804020101020408102040808040201001
:100200000804020180040201804020100804020159
:1002100008040201010204081020408001020408C1
:100220001020408000000A0B02090C0D0E08070385
:1002300004010000000000000000000000000000B9
:1002400000000000000000000000000000000000AE
:10025000121110000000000000000000000000006B
:10026000000000000000000000000000204100002D
:10027000C84200401C4620BCBE4CCA1B0E5AAEC52C
:100280009D74CDCCCC3D0AD7233C17B7D13877CC61
:100290002B329595E6241FB14F0A231011241FBE5F
:1002A000CFEFD1E2DEBFCDBF00E00CBF25E0AAEA70
:1002B000B2E001C01D92AE3AB207E1F712E0A0E051
:1002C000B2E0E0EFF4E200E00BBF02C007900D9255
:1002D000AA3AB107D9F711E0CEE4D1E000E006C0B8
:1002E00021970109802FFE010E94C411CD34D1074E
:1002F00080E00807A9F70E94190F0C9476120C945D
:100300000000282F30E0F901EC5DFD4F9491F901D8
:10031000E252FE4F449128563E4FF9012491222388
:1003200009F435C0992311F191509231F8F4E92F75
:10033000F0E08827E156FE4F8F4F0C94C411D00196
:10034000D401B101C801CC01B601D701DD01E10141
:10035000E701EB01EF01F501F901B601FD0103022F
:100360000702809180008F7780938000E22FF0E079
:10037000EE0FFF1FE258FE4FA591B4918FB7F8948E
:10038000EC91611148C040954E234C938FBF089566
:10039000809180008F7DE8CF80918000877FE4CFBF
:1003A00084B58F7784BDE2CF84B58F7DFBCF8091FC
:1003B000B0008F778093B000D9CF8091B0008F7D4F
:1003C000F9CF809190008F7780939000CFCF80916C
:1003D00090008F7DF9CF80919000877FF5CF80913D
:1003E000A0008F778093A000C1CF8091A0008F7D67
:1003F000F9CF8091A000877FF5CF809120018F7782
:1004000080932001B3CF809120018F7DF9CF80911F
:100410002001877FF5CF4E2BB8CF3FB7F89480915E
:100420000D0590910E05A0910F05B091100526B510
:10043000A89B05C02F3F19F00196A11DB11D3FBF1C
:10044000BA2FA92F982F8827BC01CD01620F711DEB
:10045000811D911D42E0660F771F881F991F4A95E5
:10046000D1F70895AF92BF92CF92DF92EF92FF92B1
:100470000F931F93CF93DF936C017B018B01040FCC
:10048000151FEB015E01AE18BF08C017D10759F068
:100490006991D601ED91FC910190F081E02DC601AA
:1004A0001995892B79F7C501DF91CF911F910F9194
:1004B000FF90EF90DF90CF90BF90AF900895FC0138
:1004C000538D448D252F30E0842F90E0821B930BB9
:1004D000541710F0CF96089501970895FC01918D5F
:1004E000828D981761F0A28DAE0FBF2FB11D5D9662
:1004F0008C91928D9F5F9F73928F90E008958FEF04
:100500009FEF0895FC01918D828D981731F0828DB7
:10051000E80FF11D858D90E008958FEF9FEF08950E
:10052000FC01918D228D892F90E0805C9F4F821B72
:1005300091098F739927089581E195E00E949002B7
:1005400021E0892B09F420E0822F0895FC01A48D7D
:10055000A80FB92FB11DA35ABF4F2C91848D90E0E5
:1005600001968F739927848FA689B7892C93A089C8
:10057000B1898C91837080648C93938D848D981352
:1005800006C00288F389E02D80818F7D80830895E5
:10059000EF92FF920F931F93CF93DF93EC0181E0D3
:1005A000888F9B8D8C8D98131AC0E889F98980817A
:1005B00085FF15C09FB7F894EE89FF896083E889AD
:1005C000F98980818370806480839FBF81E090E09F
:1005D000DF91CF911F910F91FF90EF900895F62E2C
:1005E0000B8D10E00F5F1F4F0F731127E02E8C8DC6
:1005F0008E110CC00FB607FCFACFE889F98980810B
:1006000085FFF5CFCE010E94A602F1CFEB8DEC0F56
:10061000FD2FF11DE35AFF4FF0829FB7F8940B8F27
:10062000EA89FB8980818062CFCFCF93DF93EC0191
:10063000888D8823B9F0AA89BB89E889F9898C91CA
:1006400085FD03C0808186FD0DC00FB607FCF7CF86
:100650008C9185FFF2CF808185FFEDCFCE010E9486
:10066000A602E9CFDF91CF91089581E0809307053D
:1006700008950E949C02882319F081E08093070569
:1006800080E090E0892B49F080E090E0892B29F010
:100690000E94000081110E94000080E090E0892B00
:1006A00049F080E090E0892B29F00E940000811140
:1006B0000E94000080E090E0892B49F080E090E00B
:1006C000892B29F00E94000081110C9400000895EC
:1006D000CF93DF93EC0188819981DC01ED91FC914E
:1006E0000190F081E02D19952A813B81820F931FA3
:1006F0009B838A83DF91CF910895CF93DF93EC01A1
:1007000088819981DC01ED91FC910280F381E02DDB
:1007100019952A813B81820F931F9B838A83DF91E6
:10072000CF9108958F929F92AF92BF92CF92DF9216
:10073000EF92FF920F931F93CF93DF93CDB7DEB766
:1007400066970FB6F894DEBF0FBECDBF6C018E0169
:10075000095E1F4F78018AE0882E912CA12CB12CC4
:10076000CB01BA01A50194010E94A211942F852FFB
:10077000605DF80162938F01A901692F782F4115FF
:1007800051056105710561F7A7014E1B5F0BBF01A4
:10079000C6010E947D0366960FB6F894DEBF0FBEB9
:1007A000CDBFDF91CF911F910F91FF90EF90DF9020
:1007B000CF90BF90AF909F908F90089580339CF022
:1007C0008A3324F08F3524F08B3724F481E00895A8
:1007D00081344CF08B35D4F393ED980F81E0923057
:1007E000B0F380E008958B32B9F7F0CF0F931F93E9
:1007F000CF93DF93EC018C85811140C009851A8568
:100800002FB7F8948091090590910A05A0910B05E6
:10081000B0910C052FBFF80180879187A287B3871D
:10082000D801ED91FC910284F385E02DC801199562
:1008300097FF2AC02FB7F8948091090590910A0577
:10084000A0910B05B0910C052FBFF8014085518593
:1008500062857385841B950BA60BB70B448155816C
:100860006681778184179507A607B707C8F28FEFCF
:100870009FEF97FD80E08B8781E08C878B85DF91F0
:10088000CF911F910F9108959927F3CF1F93CF9385
:10089000DF93EC01162F0E94F603811306C01C861D
:1008A00081E0DF91CF911F91089580E0FACFCF933F
:1008B000DF93EC01CE010E94F6038B303CF48930CB
:1008C0004CF4882349F081E0888710C08D3011F006
:1008D0008032C9F71C86EECF888581110AC081E07D
:1008E00090E0C15BDF4F9983888380E0DF91CF91F7
:1008F000089582E090E0F5CF08950895E091030512
:10090000F091040580917B00877F80937B0080E4D9
:1009100080937C0080917A00806480937A0080913B
:100920007A0086FDFCCF9091780080917900EE0FDF
:10093000FF1FE55CFB4F89279827892791838083D8
:10094000E0910305F09104052FB7F8948091090513
:1009500090910A05A0910B05B0910C052FBFEE0FE9
:10096000FF1FEE0FFF1FE555FD4F80839183A2838C
:10097000B38380910305909104058336910534F487
:100980000196909304058093030508951092040541
:10099000109203050895FC0124813581A9014F5F60
:1009A0005F4F868197814817590748F48281938168
:1009B00055834483FC01E20FF31F60830895019087
:1009C000F081E02D81E0808708959F92AF92BF92E1
:1009D000CF92DF92EF92FF920F931F93CF93DF930B
:1009E00000D01F921F92CDB7DEB78C010E94F60394
:1009F000D82ED8011C961C92F12CE12C60EFC62E4B
:100A0000C8010E94F603F8011486D81609F4BDC087
:100A1000811119C0F801E15BFF4F82E090E0918302
:100A2000808380E00F900F900F900F900F90DF91D8
:100A3000CF911F910F91FF90EF90DF90CF90BF90DB
:100A4000AF909F9008958C3509F09DC0C8010E9419
:100A5000F6038823F9F2EEE1F2E0853709F087C06A
:100A6000D8011C961C9254E0952EB12CA12CC801E3
:100A70000E94F603882371F281344CF48053803154
:100A800048F0F801E15BFF4F83E090E0C8CF8F7D35
:100A90008753F5CF44E0AA0CBB1C4A95E1F7A82A7E
:100AA000F80114869A949110E2CFC501985D8115E2
:100AB000944020F4750123E0F222A2CFC5019C5D91
:100AC00081159440A8F4B3E0BB22B701762F6627C6
:100AD000770F770F6A297B2990E080E001966038D4
:100AE00071058105910540F4C8010E94CB0488CFAF
:100AF000B50190E080E0F3CF1982262F2F73206894
:100B00002A8326E096958795779567952A95D1F75C
:100B10006032710580F4606C6B835E01E4E0AE0EC0
:100B2000B11CD5016E915D01662309F469CFC8013E
:100B30000E94CB04F6CF262F2F7320682B8386E0EC
:100B4000769567958A95E1F76031710538F4606EA6
:100B50006C835E01F5E0AF0EB11CE3CF60686C837F
:100B6000CD825E0126E0A20EB11CDBCF32969081D1
:100B7000992309F486CF8913F9CF8181882309F459
:100B800080CFF8011486682FAFCF0190F081E02D5F
:100B90008085882331F0F801E15BFF4F84E090E02D
:100BA0003ECF81E03FCFCF93DF93DC01EB01EC81BF
:100BB000FD818A819B810896E817F90740F481E05E
:100BC0008887F0E0E0E0CF01DF91CF91089538977A
:100BD000FD83EC833097B9F31296CD91DC91139796
:100BE000209791F0CF018C1B9D0B23E09595879565
:100BF0002A95E1F78D831396FC93EE931297158255
:100C0000148217821682DFCF1196FC93EE93F3CFF6
:100C1000EF92FF920F931F93CF93DF937C01DC0140
:100C200012962D913C911397ED91FC91AB01420FDF
:100C3000531FEF01C60FD71FC217D307A0F4888137
:100C400081110BC0E901CF014C175D0751F00991EB
:100C5000DC011D91CD010117B9F381918111FDCF07
:100C6000E8CF309751F4620F731FCB010196F70163
:100C700093838283DB011C92F901CF01DF91CF9135
:100C80001F910F91FF90EF900895FC012581222381
:100C900039F0F8E02F0290011124820F931F08957C
:100CA00090E080E00895FC0101900020E9F7319781
:100CB000AF01481B590BBC0181E195E00C94320255
:100CC000FB0101900020E9F73197AF01461B570B5C
:100CD0000C947D031F93CF93DF93EEE1F2E012813A
:100CE000112379F0329621816213F9CFEC016CE582
:100CF0000E946803612FCE01DF91CF911F910C9468
:100D000068036111F9CF6FE272E0DF91CF911F911B
:100D10000C9460062F923F924F925F926F927F9257
:100D20008F929F92AF92BF92CF92DF92EF92FF92FB
:100D30000F931F93CF93DF93CDB7DEB76C970FB6AA
:100D4000F894DEBF0FBECDBF8C011B01DC011496F1
:100D50008C9114978F77863009F492C268F58230AF
:100D6000A0F11296ED90FC901397CC901196DC9028
:100D7000843008F056C2A701B601C1010E947D036C
:100D8000F101828193816C960FB6F894DEBF0FBE9D
:100D9000CDBFDF91CF911F910F91FF90EF90DF902A
:100DA000CF90BF90AF909F908F907F906F905F900B
:100DB0004F903F902F9008958C3069F160F4883007
:100DC00009F459C28A3009F43FC266E372E0C101F6
:100DD0000E946006E5C1803209F4ECC18034A9F7B5
:100DE0006BE5C1010E946803F801008111810115C2
:100DF000110509F4DAC1B101C8010E948A06C801CF
:100E00000E9445068C01892B09F4CFC16CE2C10117
:100E10000E946803ECCFF801C080D180E280F380AB
:100E2000A7019601C701B6010E9450108111CDCFD4
:100E300020E030E0A901C701B6010E9450108823CC
:100E400079F0A7019601C701B6010E94CD119B015F
:100E5000AC01C701B6010E945010882309F4B5CF38
:100E600020E030E0A901C701B6010E94501087FFC1
:100E700008C06DE2C1010E946803F7FAF094F7F828
:100E8000F09420E836E948E15BE4C701B6010E942E
:100E9000681287FD81C074E1A72EB12C00E210E03A
:100EA000188E1F8AF501E659FD4F25913591459120
:100EB0005491C701B6010E94681287FD13C0F50165
:100EC000EE57FD4F2591359145915491C701B601DB
:100ED0000E94B6106B017C012F89388D200F311FC5
:100EE000388F2F8B1595079534E0A31AB1088CEF36
:100EF000A8168FEFB806B1F655245A9420E030E0DA
:100F0000A901C701B6010E94681218160CF04BC067
:100F10002CEA35EC47E257E3C701B6010E945010B6
:100F200018160CF440C0A52DB4E0AB02C00111248A
:100F3000B12CA12CFC01E45BFE4F3F019C01265922
:100F40003D4F49013FEF531671F1F301EA0DFB1DCF
:100F50002591359145915491C701B6010E945010D9
:100F600087FF13C0F401EA0DFB1D259135914591D2
:100F70005491C701B6010E94B6106B017C018F89A4
:100F8000988D801B910B988F8F8B159507955A9490
:100F900094E0A91AB108D6CF00E210E055E0552E32
:100FA000188E1F8AABCFC701B6010E9439124B01C0
:100FB0005C012B013C0106E080E492E4AFE0B0E08C
:100FC000898F9A8FAB8FBC8F102F01509AE04916F2
:100FD000510461047104C8F0698D7A8D8B8D9C8DEC
:100FE0002AE030E040E050E00E94A211298F3A8FC1
:100FF0004B8F5C8FC301B2012AE030E040E050E04B
:101000000E94A21129013A01DFCFC501B4010E945B
:1010100055109B01AC01C701B6010E94CC116B01B8
:101020007C01698D7A8D8B8D9C8D0E9455109B0162
:10103000AC01C701B6010E94B6102B013C010E9411
:1010400039126B017C010E9455109B01AC01C30158
:10105000B2010E94CC119B01AC010E94CD110E94F3
:101060003912C60ED71EE81EF91E898D9A8DAB8DDA
:10107000BC8DC816D906EA06FB06D8F09FEF891A80
:10108000990AA90AB90AAF89B88DAB2B39F1BAE030
:101090008B169104A104B10408F1EF89F88D319603
:1010A000F88FEF8BC12CD12C7601812C912C54011F
:1010B00083942AE0422E512C612C712CC701B60179
:1010C000A30192010E94A211672B682B692B51F496
:1010D000111644F469017A011150F0CFC12CD12CC2
:1010E0007601E7CFB501A401C1010E94920311234B
:1010F00071F14E01F1E18F0E911C012F54019AE024
:10110000492E512C612C712C015068F0C701B60199
:10111000A30192010E94A211605DD4016E934D0162
:1011200069017A01F1CF812F90E0BC016095709543
:10113000F501E81BF90B31978EE280834427552790
:10114000461B570B6A0D7B1DC1010E947D03EF8971
:10115000F88DEF2B29F165E6C1010E9468030F8924
:10116000188D17FF07C06DE2C1010E946803119539
:1011700001951109FE0177969F018AE0E82EF12C76
:10118000C801B7010E948E11805D82938B01672B8D
:10119000B9F7A9014E1B5F0BBF01C1010E947D037E
:1011A000D10112968D919C91EECD6DE5C1010E9409
:1011B0006803F6CF6BE7C1010E946803F801008164
:1011C00011810115110559F1D8011696CC90169789
:1011D0001796DC9062E2C1010E9468037601F70174
:1011E00061917F01662321F0C1010E946A06F7CF59
:1011F00062E2C1010E9468036AE3C1010E946803C0
:10120000B101C8010E948A06C8010E9445068C01EE
:10121000892B29F06CE2C1010E946803D2CF6DE7EF
:10122000C5CF62E2C1010E9468038601E00EF11E93
:10123000E016F10639F0F80161918F01C1010E94B9
:101240006A06F6CF62E2B2CFCD90DD90ED90FC90D1
:10125000B701A601F7FE0BC06DE2C1010E94680351
:1012600044275527BA014C195D096E097F09C10150
:101270000E94920385CD4D915D916D917C91F7CF48
:101280008C916BE372E0811102C060E472E0C101F5
:101290000E94600675CD0F931F93CF93DF93D0E02C
:1012A000C0E06115710591F08B01FC01C081D18115
:1012B000209761F06E817F81C8010E946D12892B99
:1012C00029F0CE010E944506EC01F2CFCE01DF915C
:1012D000CF911F910F9108954F925F926F927F92DD
:1012E000BF92CF92DF92EF92FF920F931F93CF9313
:1012F000DF93EC018B01E42E0E945704F82E81113C
:1013000010C0F12C8F2DDF91CF911F910F91FF9085
:10131000EF90DF90CF90BF907F906F905F904F9055
:101320000895CE010E94F603873209F42BC10CF513
:10133000823209F427C1CE010E94F603B82E6E0155
:10134000FFE0CF0ED11CE12C36018B2D0E94DE0375
:10135000882309F443C12FE3E21609F43FC11C8638
:10136000E394F601B1926F01CE010E94F603B82E0C
:10137000ECCF8B3509F44AC08B37E9F6F80184814C
:101380008078806284831182108213821282EE2020
:1013900009F447C01C86CE010E945704882309F433
:1013A000B0CF6DE7CE010E944604D82E8111AACF9E
:1013B000CC24C394EA94E881F981828193819B8350
:1013C0008A838481958122813381821B930B9F8341
:1013D0008E831D821C82892B09F4C086CE010E9457
:1013E000F603873209F45DC0823209F45AC0CE0197
:1013F0000E94F603F82E0E94DE03811159C0C15BE2
:10140000DF4F83E090E09983888350C0F8018481A6
:101410008078806484831182108213821282E110AA
:1014200007C0C15BDF4F85E090E09983888369CF77
:101430001C86CE010E945704882309F462CF6DE513
:10144000CE010E94460481115DCFEA946D857E85B0
:10145000C8010E94D305009729F4C15BDF4F84E0E7
:1014600090E0E3CF4E2DBC01CE010E946C09882391
:1014700009F447CFCE010E945704882309F441CFD5
:101480006DE5CE010E94460481113CCF6CE2CE0195
:101490000E9446048111DACFC15BDF4F83E090E008
:1014A000C4CFCE010E94E504811119C0FD2C2ACFC2
:1014B0001C866F2DCE010E94CB04CE010E94F60344
:1014C000F82E0E94DE038111F3CFE881F981808537
:1014D000882329F0C15BDF4F84E090E094CFCE01F8
:1014E0000E945704882311F36AE3CE010E94460448
:1014F000882309F484CFEA81FB818C819D81E80FE8
:10150000F91F10826C807D806A817B81C8010E94F6
:101510004B09BC01892BA1F4B301888199810E94F8
:1015200008063C016D857E85C8010E94D305FC013B
:10153000892B81F284818068848377826682BF01EF
:101540004E2DCE010E946C09882309F4AFCFCE0145
:101550000E945704882309F4A9CF6DE7CE010E94A9
:10156000460481110DC06CE2CE010E94460488231E
:1015700009F445CFCE010E94570481111CCF96CFAC
:10158000D82E94CFE881F981828193819B838A83CD
:101590008481958122813381821B930B9F838E836B
:1015A0001D821C82892B11F481E08087CE010E946C
:1015B000E504F82E882309F4A4CECC80DD80B601A2
:1015C000888199810E940806F8012481207825608D
:1015D000248391838083D382C28294CEFE01EE0D58
:1015E000F11D17868F85843781F4F8018481807816
:1015F0008660848381E08083F4E0EF1609F482CE74
:10160000C15BDF4F82E090E010CF863641F4F801F5
:1016100084818078866084831082F5E0EECF8E36F8
:1016200021F424E0E212ECCF6DCE8B32D9F1F3013C
:101630008D32D1F5FE017096BF2C808190ED980F10
:101640009A3018F08E3209F027CF6F0160E070E019
:10165000CB01F6012191A0ED4A2E420E39E034155E
:1016600028F16A3949E97407840749E1940740F58C
:10167000AAE0B0E09B01AC010E947411512C712CC6
:10168000612CA30192012095309540955095261725
:10169000370748075907A0F0640D751D861D971D73
:1016A0006F01D7CFFE017096B12CC7CF211108C0B2
:1016B000BB2071F161307105810550E89507A0F0FC
:1016C000E12CEAE04E2E512C612C712C6115710534
:1016D000F0E88F07910530F1A30192010E94A21159
:1016E000CA01B901E394F2CFF801248120782A607D
:1016F00024839B01AC0188279927DC01821B930B73
:10170000A40BB50B80839183A283B383FB2CFACD0A
:10171000F801248120782860248360837183828388
:101720009383F0CDD601F60121916F0130ED320F98
:101730003A3010F4E394F6CF2E32F1F4FD013196F5
:10174000DF0131962C9150EDD52ED20E29E02D15CA
:1017500098F06C3C3CEC73073CE08307910580F704
:10176000AAE0B0E09B01AC010E9474116D0D711DE7
:10177000811D911DEA94E4CF2C912F7D253409F031
:101780008CC011962C9111972D32D9F512967F2C81
:10179000FD0130E020E0CE2C0E2C000CDD084AE0EC
:1017A000542EDF01619040ED460D4A3008F043C0F1
:1017B000529EA001539E500D1124262D660C330B12
:1017C00020533109240F351FA601420F531F473202
:1017D00051053CF3F80184817720D1F040E050E0DE
:1017E00060E070E8B11003C040E050E0BA018078DA
:1017F0008C60F80184834083518362837383F72C68
:1018000081CD2B3219F01196712CC2CF1296FCCFDC
:1018100040E050E060E87FEFB11004C040E050E0ED
:1018200060E87FE780788C60F8018483408351838F
:101830006283738367CD772019F031952195310943
:101840004C91411129CEE901CE0DD11DE7FCDA956D
:101850000E9455101C161D061CF5E12CC0FF0CC083
:1018600024E0E29EF0011124E659FD4F25913591C7
:10187000459154910E94B610D595C795E394209751
:1018800069F7B1109058F801248120782C602483E6
:10189000608371838283938335CD30E020E0D0CFA5
:1018A000D195C195D109E12C209759F3C0FF0CC007
:1018B00044E0E49EF0011124EE57FD4F259135914F
:1018C000459154910E94B610D595C795E394ECCFFD
:1018D000EF92FF920F931F93CF93DF93EC018B0155
:1018E0007C0189E0E80EF11C8D85982F9F7739F4F3
:1018F000807880628D871A8619861C861B868D8566
:1019000085FD0BC0F0E0E0E0BF01CE01DF91CF919B
:101910001F910F91FF90EF900895B801C7010E94A9
:101920004B09FC01892B61F4BE01C7010E94D3055C
:10193000FC01892B39F384818F7784831783068395
:101940008481807880648483118210821382128261
:10195000DBCF2F923F924F925F926F927F928F9246
:101960009F92AF92BF92CF92DF92EF92FF920F932E
:101970001F93CF93DF93CDB7DEB7CE56D6400FB6C9
:10198000F894DEBF0FBECDBFCE010F969A83898338
:101990009C838B838E010759194F1E830D831887F3
:1019A0000F8319861E8666E472E00E970E94680C0B
:1019B0004B015C016BE472E0CE0101960E94680C61
:1019C0002B013C018BEAE82E82E0F82E9BE3C92E26
:1019D00094E0D92E1401C359D94F59824882CD566B
:1019E000D64021143104B1F0B501C1010E94D305E4
:1019F000FC01892B79F0D6012D913C91948190784E
:101A00009A609483C901330FAA0BBB0B8083918327
:101A1000A283B383C359D94FE881F981CD56D6400B
:101A20003097A1F0B301CF010E94D305FC01892BAF
:101A300069F0D7014D915D916D917C919481907881
:101A4000986094834083518362837383B4E0EB0E88
:101A5000F11CE2E0CE0ED11C8BE394E08E159F05C5
:101A600009F0BFCF81E195E0D80111969C938E9348
:101A700013961C921E921297B801CE010A960E94EC
:101A80008A0680E592E00E9453061092AA02C2598B
:101A9000D94F0FB6F894DEBF0FBECDBFDF91CF9107
:101AA0001F910F91FF90EF90DF90CF90BF90AF907C
:101AB0009F908F907F906F905F904F903F902F906E
:101AC00008950F931F93CF93DF93CDB7DEB7C3561F
:101AD000D2400FB6F894DEBF0FBECDBFCE010F9639
:101AE0009A8389839C838B8383E092E08C0F9D1F74
:101AF0009E838D8398878F8319861E86825092409D
:101B0000C45ADD4F99838883CC55D24028E0FE012A
:101B1000E45AFD4FDE01AC5ABD4F01900D922A955B
:101B2000E1F728E0FE01EC5AFD4FDE01AD5FBD4F4D
:101B300001900D922A95E1F7C55FDD4F1882CB50D9
:101B4000D24021E135E0C45FDD4F39832883CC509A
:101B5000D240C15FDD4F1882CF50D240C05FDD4F11
:101B600099838883C051D240CE5ADD4F19821882A2
:101B7000C255D2404AE0BE01665F7F4F8E5F9D4FE7
:101B80000E946C09CE5ADD4F08811981C255D2409E
:101B90000115110501F5C25FDD4F8881CE50D2409D
:101BA0008823C9F08E8583FF16C01092070503E0D5
:101BB00010E083E592E00E945306000F111FF80128
:101BC000E050FE4F808191810097C9F580E592E059
:101BD0000E94530608C0109207050115110549F728
:101BE0008E8585FD0CC0CD59DD4F0FB6F894DEBF54
:101BF0000FBECDBFDF91CF911F910F9108956AE67F
:101C000072E0CE010A960E944B09009761F3FC0135
:101C100084818F7741F36AE672E0CE010A960E94D2
:101C20004B09FC01892B71F194819F77983009F160
:101C300048F4992339F19630B1F011E015C00E94B3
:101C40005306C4CF9A30A9F09C30B9F711E020E0D8
:101C500030E0A90160817181828193810E945010DE
:101C6000811102C00FC01081612F87E00E948101A5
:101C7000BACF11E080819181A281B381892B8A2B17
:101C80008B2B91F710E0F0CF1F920F920FB60F92AF
:101C900011242F933F938F939F93AF93BF93809182
:101CA000090590910A05A0910B05B0910C053091A2
:101CB000080523E0230F2D3758F50196A11DB11D0E
:101CC000209308058093090590930A05A0930B05BE
:101CD000B0930C0580910D0590910E05A0910F0514
:101CE000B09110050196A11DB11D80930D05909333
:101CF0000E05A0930F05B0931005BF91AF919F9172
:101D00008F913F912F910F900FBE0F901F901895BC
:101D100026E8230F0296A11DB11DD2CF1F920F926C
:101D20000FB60F9211240BB60F922F933F934F9340
:101D30005F936F937F938F939F93AF93BF93EF9333
:101D4000FF9381E195E00E94A602FF91EF91BF9180
:101D5000AF919F918F917F916F915F914F913F9143
:101D60002F910F900BBE0F900FBE0F901F901895E4
:101D70001F920F920FB60F9211240BB60F922F9352
:101D80008F939F93EF93FF93E0912105F0912205AC
:101D90008081E0912705F091280582FD1DC090818A
:101DA00080912A058F5F8F7320912B05821741F058
:101DB000E0912A05F0E0EF5EFA4F958F80932A05B7
:101DC000FF91EF919F918F912F910F900BBE0F90EC
:101DD0000FBE0F901F9018958081F2CF1F920F9227
:101DE0000FB60F9211240BB60F922F933F934F9380
:101DF0005F936F937F938F939F93AF93BF93EF9373
:101E0000FF93E0910505F09106051995FF91EF917B
:101E1000BF91AF919F918F917F916F915F914F9102
:101E20003F912F910F900BBE0F900FBE0F901F9000
:101E30001895789484B5826084BD84B5816084BD32
:101E400085B5826085BD85B5816085BD80916E0058
:101E5000816080936E001092810080918100826089
:101E600080938100809181008160809381008091C6
:101E700080008160809380008091B10084608093B5
:101E8000B1008091B00081608093B000809191009A
:101E90008260809391008091910081608093910095
:101EA000809190008160809390008091A100826079
:101EB0008093A1008091A10081608093A100809116
:101EC000A00081608093A0008091210182608093B6
:101ED0002101809121018160809321018091200165
:101EE00081608093200180917A00846080937A00E1
:101EF00080917A00826080937A0080917A0081607C
:101F000080937A0080917A00806880937A001092A2
:101F1000C100E0912105F091220582E08083E091EB
:101F20001D05F0911E051082E0911F05F09120051E
:101F300080E1808310922905E0912505F091260526
:101F400086E08083E0912305F09124058081806103
:101F50008083E0912305F09124058081886080834F
:101F6000E0912305F0912405808180688083E091D1
:101F70002305F091240580818F7D8083E5EEF1E0DB
:101F80002491EFE9F1E08491882399F090E0880FA3
:101F9000991FFC01EC59FE4FA591B491FC01E25848
:101FA000FE4F859194918FB7F894EC91E22BEC93CE
:101FB0008FBF60E087E00E94810180E18093810013
:101FC0001092800080E197E29093870080938600D2
:101FD00082E1809381008EE794E0909306058093E0
:101FE000050581E080936F0080910705882321F02B
:101FF0000E94610D0E94A90C0E940D024B015C0120
:1020000085E0C82ED12CE12CF12C0E940D0268191C
:1020100079098A099B09683E734081059105A8F3F7
:1020200021E0C21AD108E108F10888EE880E83E0A9
:10203000981EA11CB11CC114D104E104F10429F7BC
:102040000E943903D1CFE1E1F5E01382128288EEDC
:1020500093E0A0E0B0E084839583A683B78380E11A
:1020600092E09183808385EC90E09587848784EC6F
:1020700090E09787868780EC90E0918B808B81EC55
:1020800090E0938B828B82EC90E0958B848B86EC36
:1020900090E0978B868B118E128E138E148E08957E
:1020A0000E94921008F481E00895E89409C097FB1B
:1020B0003EF490958095709561957F4F8F4F9F4F1F
:1020C0009923A9F0F92F96E9BB279395F695879563
:1020D00077956795B795F111F8CFFAF4BB0F11F426
:1020E00060FF1BC06F5F7F4F8F4F9F4F16C08823CD
:1020F00011F096E911C0772321F09EE8872F762F03
:1021000005C0662371F096E8862F70E060E02AF043
:102110009A95660F771F881FDAF7880F969587952F
:1021200097F90895990F0008550FAA0BE0E8FEEF04
:1021300016161706E807F907C0F012161306E4078B
:10214000F50798F0621B730B840B950B39F40A2684
:1021500061F0232B242B252B21F408950A2609F462
:10216000A140A6958FEF811D811D08950E94C91081
:102170000C943A110E942C1138F00E94331120F077
:10218000952311F00C9423110C94291111240C9413
:102190006E110E944B1170F3959FC1F3950F50E0A3
:1021A000551F629FF001729FBB27F00DB11D639F09
:1021B000AA27F00DB11DAA1F649F6627B00DA11DAF
:1021C000661F829F2227B00DA11D621F739FB00D55
:1021D000A11D621F839FA00D611D221F749F3327C5
:1021E000A00D611D231F849F600D211D822F762F5E
:1021F0006A2F11249F5750409AF0F1F088234AF03B
:10220000EE0FFF1FBB1F661F771F881F91505040A6
:10221000A9F79E3F510580F00C9423110C946E1188
:102220005F3FE4F3983ED4F3869577956795B7952D
:10223000F795E7959F5FC1F7FE2B880F911D969547
:10224000879597F9089597F99F6780E870E060E0B7
:1022500008959FEF80EC089500240A94161617063F
:1022600018060906089500240A9412161306140687
:1022700005060895092E0394000C11F4882352F0EA
:10228000BB0F40F4BF2B11F460FF04C06F5F7F4FA2
:102290008F4F9F4F089557FD9058440F551F59F089
:1022A0005F3F71F04795880F97FB991F61F09F3F43
:1022B00079F087950895121613061406551FF2CF6C
:1022C0004695F1DF08C0161617061806991FF1CFBC
:1022D00086957105610508940895E894BB276627E3
:1022E0007727CB0197F908950E947F11A59F900D44
:1022F000B49F900DA49F800D911D11240895A29F5D
:10230000B001B39FC001A39F700D811D1124911DC9
:10231000B29F700D811D1124911D0895AA1BBB1B36
:1023200051E107C0AA1FBB1FA617B70710F0A61BD5
:10233000B70B881F991F5A95A9F780959095BC01F6
:10234000CD010895A1E21A2EAA1BBB1BFD010DC0F1
:10235000AA1FBB1FEE1FFF1FA217B307E407F50755
:1023600020F0A21BB30BE40BF50B661F771F881F31
:10237000991F1A9469F760957095809590959B01C7
:10238000AC01BD01CF010895EE0FFF1F881F8BBF69
:102390000790F691E02D19945058BB27AA270E9468
:1023A000E4110C943A110E942C1138F00E94331160
:1023B00020F039F49F3F19F426F40C9429110EF4FF
:1023C000E095E7FB0C942311E92F0E944B1158F381
:1023D000BA17620773078407950720F079F4A6F50A
:1023E0000C946D110EF4E0950B2EBA2FA02D0B015D
:1023F000B90190010C01CA01A0011124FF27591B4A
:1024000099F0593F50F4503E68F11A16F040A22F4F
:10241000232F342F4427585FF3CF469537952795C0
:10242000A795F0405395C9F77EF41F16BA0B620BBF
:10243000730B840BBAF09150A1F0FF0FBB1F661F06
:10244000771F881FC2F70EC0BA0F621F731F841F49
:1024500048F4879577956795B795F7959E3F08F06F
:10246000B0CF9395880F08F09927EE0F9795879531
:1024700008950E94531188F09F5798F0B92F99271B
:10248000B751B0F0E1F0660F771F881F991F1AF05F
:10249000BA95C9F714C0B13091F00E946D11B1E046
:1024A00008950C946D11672F782F8827B85F39F045
:1024B000B93FCCF3869577956795B395D9F73EF4F8
:1024C00090958095709561957F4F8F4F9F4F0895A0
:1024D0000E94921008F48FEF0895FB01DC018D91AA
:1024E000019080190110D9F3990B0895F894FFCF4A
:1024F0006E0271027C028C029902A20200000000AE
:10250000C80232025F02150390026E0282022F2F70
:1025100022225C5C6208660C6E0A720D7409005C13
:102520007530303030006E756C6C007472756500FB
:1025300066616C736500646174610074696D650047
:102540000D0A00646573657269616C697A65282992
:10255000206661696C65643A20006C6564004F6BAD
:1025600000456D707479496E70757400496E636FC3
:102570006D706C657465496E70757400496E766136
:102580006C6964496E707574004E6F4D656D6F7245
:0A2590007900546F6F446565700018
:00000001FF
